:0200000460009A
:100000004643464200000156000000000103030081
:1000100000000000000000000000000000000000E0
:1000200000000000000000000000000000000000D0
:1000300000000000000000000000000000000000C0
:1000400000000000010408000000000000000000A3
:100050000000800000000000000000000000000020
:100060000000000000000000000000000000000090
:100070000000000000000000000000000000000080
:10008000EB04180A063204260000000000000000FD
:10009000050404240000000000000000000000002F
:1000A0000000000000000000000000000000000050
:1000B0000604000000000000000000000000000036
:1000C0000000000000000000000000000000000030
:1000D00020041808000000000000000000000000DC
:1000E0000000000000000000000000000000000010
:1000F0000000000000000000000000000000000000
:10010000D8041808000000000000000000000000F3
:100110000204180804200000000000000000000095
:1001200000000000000000000000000000000000CF
:10013000600400000000000000000000000000005B
:1001400000000000000000000000000000000000AF
:10015000000000000000000000000000000000009F
:10016000000000000000000000000000000000008F
:10017000000000000000000000000000000000007F
:10018000000000000000000000000000000000006F
:10019000000000000000000000000000000000005F
:1001A000000000000000000000000000000000004F
:1001B000000000000000000000000000000000003F
:1001C000000100000010000001000000000000001D
:1001D000000001000000000000000000000000001E
:1001E000000000000000000000000000000000000F
:1001F00000000000000000000000000000000000FF
:10020000FFFFFFFFFFFFFFFFFFFFFFFFFFFFFFFFFE
:10021000FFFFFFFFFFFFFFFFFFFFFFFFFFFFFFFFEE
:10100000D10020432914006000000000000000000F
:101010002010006000100060000801600000000067
:10102000000000600014010000000000FFFFFFFF4F
:10103000FFFFFFFFFFFFFFFFFFFFFFFFFFFFFFFFC0
:10104000FFFFFFFFFFFFFFFFFFFFFFFFFFFFFFFFB0
:10105000FFFFFFFFFFFFFFFFFFFFFFFFFFFFFFFFA0
:10106000FFFFFFFFFFFFFFFFFFFFFFFFFFFFFFFF90
:10140000884207D0904205D251F8043B40F8043B93
:101410008242F9D8704700BF884204D2002340F8C6
:10142000043B8142FBD87047664B4FF42A01664A61
:1014300066482DE9F0475A641864654A99639546F1
:10144000BFF34F8FBFF36F8F00F01EFA614B082080
:10145000614A6249C3F854016148FFF7D1FF614A0C
:1014600061496248FFF7CCFF61496248FFF7D4FF4A
:10147000614C62494FF470000023614A086044F8EF
:1014800023200133B02BFAD15E4B80215E4A03F852
:10149000011B9342FBD14F4D4FF080385B494FF019
:1014A000FF325B4B0026DFF8A4A1DFF8A4911C609B
:1014B000C5F80481C5F800A1C5F8F480C5F8F0901E
:1014C0000B68544F43F4E0230B60FB693D4923F064
:1014D0007F0343F04003FB617B6A23F07F0343F00B
:1014E00040037B628A66CA660A674A6700F0D2F9DF
:1014F000494A4A4B6320A2630321E363484A494BAC
:10150000106000F160401E6042F8041C00F6A170FB
:101510004549464AC3F8082D0B68454A43F0807395
:101520000B601368434943F00103136003680B60C9
:1015300000F000FCC5F804813F48C5F800A1C5F8DB
:10154000F480C5F8F09000F0A3FDF96E3B4A41F439
:1015500040513B4BF9661660C2F80861C2F8186149
:10156000C2F82861C2F838619A6BD20708D442F6F3
:101570001562344959651A659A6B42F001029A6303
:101580002F4A314C936843F00113936000F0F4F953
:1015900000F030FD00F078FD00F0FEFB00F076F981
:1015A0002368132BFCD900F085FC2368B3F5967FE4
:1015B000FBD300F06DF900F05BFD00F04DFD30BF96
:1015C000FDE700BF00C00A40AFAAAAAA070020009A
:1015D0000000072000800D4098C0000070220060CD
:1015E00000000000C02200200CE30060000000208A
:1015F00080310020C02200200020002088ED00E083
:10160000619B000000E400E0A0E400E024ED00E0C5
:1016100008ED00E000C00F409DAF0000A1AF00004A
:1016200014E000E018E000E0FCED00E00000202005
:10163000001000E0A83000200046C323004008400E
:1016400000400D400000C056AC3000201B10182098
:101650000C0D11132DE9F041294F00254269012499
:10166000B96B4FF0020E16684FF4303821F47C014C
:101670000369DFF89CC041F48021B9633168576881
:10168000394331604FF001161E49C3F810E01D6167
:10169000C3F848C05C629962C3F82C809F6C1A49F9
:1016A0001F651D629E651C61037E184E02EB0315CB
:1016B0002C7A2B4601EB0414A46826602C7AED6882
:1016C00001EB0414646825601C690CB15B6923603C
:1016D000407E0E4C02EB001393F828001A4601EBF3
:1016E00000108068046093F82840D86A01EB041168
:1016F0004B681860136B0BB1526B1A60BDE8F08138
:1017000000C00F40B80B05053405002061F801004A
:101710003B3728194369027E03EB0212F0B4147AB6
:101720008C4209D01A7AFF2A06D08A4228D01A7E23
:10173000FF2A01D08A4201D0F0BC704701252E4615
:1017400093E806000968114217D00F4A03EB06130D
:1017500005270E4E02EB041461680F60197A02EB44
:10176000011189680E601C7AD96802EB0412526874
:1017700011601A690AB15B6913600576F0BC7047A5
:1017800000252E46DCE700BF3405002061F801008B
:1017900043690B4A03EB011010B4017A094C02EBC8
:1017A000011189680C60047AC16802EB0412526866
:1017B000116002690AB1436913605DF8044B704718
:1017C0003405002061F801004369427E03EB0212F8
:1017D000F0B492F828408C420BD093F82820FF2ACE
:1017E00007D08A422BD093F83820FF2A01D08A42B2
:1017F00001D0F0BC704701252E4693E80600096829
:10180000114219D00F4A03EB061305270E4E02EBC7
:10181000041461680F6093F8281002EB01118968C5
:101820000E6093F82840D96A02EB041252681160E6
:101830001A6B0AB15B6B13604576F0BC70470025EC
:101840002E46DAE73405002061F8010043690C4AAE
:1018500003EB011010B490F828100A4C02EB0111B0
:1018600089680C6090F82840C16A02EB0412526843
:101870001160026B0AB1436B13605DF8044B704753
:101880003405002061F80100704700BF704700BFB9
:10189000704700BFF0B5244A0020244B4FF0100CD5
:1018A000234C1126DFF8C8E0122720600125C2F87A
:1018B00000C0C3F800E01660DFF8B8E01D4EC3F8C2
:1018C00000E01D4917601E6041F015011B4F1C4EC2
:1018D00017601E601B4F1C4E17601E601B4F11606F
:1018E0001B4E1C491F6016601B4F19601B4E1C4984
:1018F00017601E601B4F11601B4E1C491F60166055
:1019000019602560BFF34F8FBFF36F8FC3F8B0012D
:10191000BFF34F8FBFF36F8F52F8883C43F44033CF
:1019200042F8883CF0BD00BF9CED00E0A0ED00E077
:1019300094ED00E009001000803100201300200029
:1019400021000207140000202500081309000010E0
:101950001600202027000B1317000040330010133F
:10196000180000602F000B07190000702F000B13E8
:101970003F00001025000803F0B58D4B18228D4E56
:1019800001208D4948F20C7E8C4D4FF0FF378C4C76
:1019900083B0C3F85C12C3F860520025C3F8641228
:1019A000C3F868424FF40054C3F86C628549C3F829
:1019B0007062C3F87462C3F87862834EDA661A679D
:1019C0005A679A67DA67C3F88020C3F88420C3F89F
:1019D000882040F20562C1F82C03C1F83003C1F839
:1019E0003403C1F83803C1F83C03C1F85003294659
:1019F000B36976481840764B03437648B361D6F80E
:101A0000843043F00C03C6F8843002260368334365
:101A10000360036803EA0E0E6F4B4EEA0303DFF820
:101A2000F0E103606D4B4760DEF808703B406C4F9F
:101A300043F000538360C36823F07803C360036AF4
:101A40001F40684B3B43664F0362036A1F40654B70
:101A50003B43654F43628762C762DEF8B830634F2D
:101A600023F03F0343F00103C0F8B830DEF8BC3088
:101A7000DFF884E123F03F0343F00103C0F8BC30FA
:101A8000056104660767C0F8802044664767C0F8B0
:101A900084200468564B24F00204564A0460C0F8BF
:101AA00018E0C66143F8041B9342FBD1494B1A6806
:101AB000194642F001021A600B68464A13F001030E
:101AC000FAD14D4E022540F2F56440F2664040F2F4
:101AD00099414A4F966142F20146D56140F235453F
:101AE000C2F8004242F20124C2F810020120C2F8FA
:101AF00020121146C2F8307207F15A47C2F8346218
:101B000007F51377C2F840523D4E3E4DC2F8507271
:101B1000C2F85462C2F86052C2F86442C2F8A030FF
:101B2000C2F8A430C2F8B0004B692A4ADD07FBD5E1
:101B3000012300244FF4803011465361C2F8A040C5
:101B4000C2F8A400C2F8B0304B69224ADC07FBD5CA
:101B5000012300244FF4003011465361C2F8A04025
:101B6000C2F8A400C2F8B0304B691A4AD807FBD5B6
:101B700001230024244811465361C2F8A040C2F852
:101B8000A400C2F8B0304B69124ADB07FBD5D2F88B
:101B9000003145F60D5121209BB250618B4239D066
:101BA0001A4B00221A605A609A60DA6003B0F0BDE6
:101BB00000801F40F9700100F9B00100F910010028
:101BC000F900010000841F4000C00F40FFFCFF1F10
:101BD000000300A000402A401200FFFFFF37F7007B
:101BE00000FFF07C40000080FF000F8363000200D4
:101BF00000422A4000432A40F05AF05A9F0418300D
:101C0000063201263806180A040003002431002099
:101C100000802A4000244FF4802001231146C2F89E
:101C2000A040C2F8A400C2F8B0304B693B4ADF07BD
:101C3000FBD501234FF40004002011465361C2F884
:101C4000A040C2F8A400C2F8B0304B69334ADE07A6
:101C5000FBD501234FF400044FF48030114653614B
:101C6000C2F8A040C2F8A400C2F8B0304B692B4AB9
:101C7000DD07FBD501234FF400044FF4003011467B
:101C80005361C2F8A040C2F8A400C2F8B0304B695A
:101C9000224ADC07FBD501234FF4000420481146FB
:101CA0005361C2F8A040C2F8A400C2F8B0304B693A
:101CB0001A4AD807FBD5D2F8003145F60D5121203C
:101CC0009BB250618B4210D0164B08224FF4000497
:101CD0001A7015490020154A01230090521A144821
:101CE000224400F0BDF903B0F0BD4FF400044FF4FE
:101CF000802101231046C2F8A040C2F8A410C2F807
:101D0000B03043690549DB07FBD50120054B1022A4
:101D10004FF0807448611A70DBE700BF00402A4032
:101D200004000300C33000200000007000000070B9
:101D300024310020F0B4174A40274FF480314FF48B
:101D400080564FF400554FF4404443F2420013696B
:101D500013F0020F06D0946151619061136913F082
:101D6000020FF8D113F4005F01D15561EFE713F4CE
:101D7000805F01D15661EAE7002BE8DA13F4803F77
:101D800001D09161E3E75B0601D45761DFE7F0BC66
:101D9000704700BF00800D40394A03203949F3EEF7
:101DA000095A13689FED386A23F00103DFED376AA3
:101DB000F0B4136000241061D1F8E030344FD8B291
:101DC000C3F30B211B0D334E07EE100A05EE101A5C
:101DD00007EE903A304BB8EEC55A304DB8EEC77AA0
:101DE0003060F8EEE77A29602D4937EE466A2D4ECD
:101DF00077EEC57A2C4877EE666A2C4D37EE657A19
:101E000026EE276AC7ED007A66EEA76A176867EEC6
:101E1000277A83ED007AC6EE075A86EE876AC7EE08
:101E2000876A35EE857AFCEEC77A36EE057A17EECC
:101E3000903ABCEEC77A47EA035376EE857A136090
:101E400017EE103AD2F81071FCEEE77A01EA03417E
:101E5000394317EE903AC2F81011C3F30B03D2F8CE
:101E600010110B43C2F81031136843F002031360E2
:101E70003470C0F840510E4B0122F0BC1A6070471C
:101E800080810D4000441F400000AA420000B4427F
:101E900040300020383000203C300020343000201A
:101EA0000000FF0F40E400E000200020219D000022
:101EB00008E100E0304B40F6617270B5C3F82021B4
:101EC00040F2044500F0D8F82C492D48D1F8802084
:101ED0002C4C42F003022C4BC1F88020C0F860511A
:101EE000226813401BB9D0F8A8319A071AD0244BA6
:101EF0004FF00041234A51631A46D3F8401141F094
:101F00000201C3F84011D2F840319B07FBD44FF4D3
:101F100000301E491B4B4FF00042086019209A63A5
:101F200000F0A2F81A4D0022164B4FF08041144CDD
:101F30000A26996328461A601146C4F8A8614FF42E
:101F4000207200F09DF84FF4810640F243114FF4E7
:101F50008000104B104A2E602864C4F85851C4F811
:101F60004811C3F804220D4A4FF4003101231160D7
:101F7000C4F8403170BD00BF00800D4000C00F406C
:101F800000002E4000900D40001C1E008CE200E07E
:101F90000000002000200020ED9E00000CE100E089
:101FA00008B50E4B1B6E9B0700D4FBBE72B60C4BE4
:101FB00000200C4AC3F8400103F160430A49A3F52D
:101FC0005F2311649D46BFF34F8F084A03F5E0433A
:101FD00007491268184619609368984700441F40E3
:101FE00000002E4000C00A40030020001C0020001A
:101FF000000012EB114B1249D86E0A4640F44030F3
:1020000030B4D86640F23765D86EA02440F44070F2
:10201000D8664D648C64936C1B06FCD4094B40F26B
:102020003760A0211A4658649964936C13F08003BA
:10203000FBD1054A137030BC704700BF00C00F4091
:1020400000400C4000800C40C2300020F8B500BFBA
:10205000F8BC08BC9E4670475FF800F09195000000
:102060005FF800F045B000005FF800F05D920000FE
:102070005FF800F0F9B000005FF800F08DA60000F6
:102080005FF800F091B700005FF800F09D98000045
:102090005FF800F0998F0000010100000D7300004F
:0420A0008185000036
:1020A40080C00F4000000003190000001000000071
:1020B400E8841F4001000000FF000000FF00000052
:1020C40000000000000000001800000010000000E4
:1020D400E4841F4001000000FF000000FF00000036
:1020E40000000000000000001F000000C57C00008C
:1020F40070C00F40000C000011000000110000002F
:10210400E0841F40020000002C00000012000000C8
:10211400E0841F40010000001000000011000000D6
:10212400DC841F40020000002D00000012000000AB
:10213400DC841F40010000001E000000B97C000088
:1021440070C00F40C0000000120000001300000027
:10215400D0841F4001000000FF000000FF000000C9
:102164000000000000000000130000001300000045
:10217400CC841F4001000000FF000000FF000000AD
:1021840000000000000000001C000000AD7C000006
:1021940001010100160355005300420020005300C2
:1021A40065007200690061006C00000018035400AF
:1021B400650065006E0073007900640075006900B5
:1021C4006E006F000403090409024B00020100C001
:1021D40032080B000202020100090400000102029D
:1021E4000100052400100105240101010424020654
:1021F40005240600010705820310001009040100EC
:10220400020A0000000705030240000007058402DB
:102214004000000009024B00020100C032080B001C
:102224000202020100090400000102020100052467
:1022340000100105240101010424020605240600FE
:10224400010705820310000509040100020A0000C9
:1022540000070503020002000705840200020000D3
:0C2264000A060002EF0201400100010028
:10227000000000000000000000000000000000005E
:10228000000000000000000000000000000000004E
:102290004FF08442F8B5936955691D400DD0244F25
:1022A0000126956195FAA5F4B4FA84F457F8243020
:1022B00006FA04F49847A543F4D11E4A9369556978
:1022C0001D400DD01C4F0126956195FAA5F4B4FA76
:1022D00084F457F8243006FA04F49847A543F4D15F
:1022E000164A936955691D400DD0154F0126956119
:1022F00095FAA5F4B4FA84F457F8243006FA04F4F5
:102300009847A543F4D10F4A936955691D400ED0F3
:102310000D4F0126956195FAA5F4B4FA84F457F8A7
:10232000243006FA04F49847A543F4D1F8BDF8BD6B
:10233000141C002000400042941C00200080004239
:10234000141D002000C00042941D002010B5054C53
:10235000237833B9044B13B10448AFF30080012351
:10236000237010BDF82400200000000094C000007D
:10237000084B10B51BB108490848AFF30080084866
:10238000036803B910BD074B002BFBD0BDE810401C
:10239000184700BF00000000FC24002094C000008B
:1023A000C022002000000000034608205A680A707E
:1023B0005A68C2404A70DA888A70DA79CA709A68B4
:1023C0000A719A68C2404A715A898A71DB7ACB7164
:1023D000704700BF10B402460B78082053604C7859
:1023E00043EA042353608C7843EA04435360CC7877
:1023F00043EA046353600B7993604C7943EA042306
:1024000093608C7943EA04435DF8044B9360C97987
:1024100043EA0163936070470048704780090020D9
:102420000048704790090020F0B50D460C78002355
:10243000848015F8016F1A4644EA0624848015F852
:10244000014F9C400833202B42EA0402F7D1961D2D
:10245000062E5FD901F1050C02F1050E634601EB72
:102460000E0513F8014FAB4203F8014CF9D10024DB
:1024700001EB0E07234601F80E40C0F808C017F81C
:10248000015FA5400834202C43EA0503F7D1043648
:102490003344B34209D9093234460A44013412F8AC
:1024A000015FA34202F8015CF8D8741E0025CE1823
:1024B0000C442A4606F8015CC4602C4616F8015B01
:1024C00095400832202A44EA0504F7D11E1D344401
:1024D000A64209D2033332460B44013213F8015F9E
:1024E000A24203F8015CF8D3013E0F19002304F166
:1024F000040E0E4407F8013C0661BD787B782D047C
:102500000A5DF97845EA0323134343EA0163436113
:102510007046F0BD02F1050E01F1050CA7E700BF02
:1025200000487047B409002000487047D0090020D7
:102530000023F0B406460A780C461D46027114F8D2
:10254000012F9A400833202B45EA0205F7D1681D78
:102550000F1D052808D92C1D3B460C4413F8012FEC
:102560009C4203F8012CF9D1294400230B71B76078
:10257000F0BC704700487047F409002000487047DD
:10258000080A0020004870471003002000487047E8
:102590002C0A0020037901200B7070470B7803711F
:1025A0000120704700487047500A002000487047DB
:1025B000600A00200023F0B506461C46481E10F8AD
:1025C000012F9A400833202B44EA0204F7D1271D3B
:1025D00001F1030E042F08D9E51C73460D4413F8CE
:1025E000012F9D4203F8012CF9D10A19002304F1AF
:1025F0000C00D370C6F804E0CB5DB360517943EAB8
:102600000123B360917943EA0143B360D17943EA8E
:102610000163B360137AF360517A43EA0123F360F4
:10262000917A43EA0143F360D27A43EA0263F360AA
:10263000F0BD00BF00487047840A00200048704782
:10264000A40A002000487047C80A002000487047CC
:10265000E40A002000487047080B0020004870473B
:10266000240B002002460C20536830B40B701D0A66
:102670001C0C1B0E4D708C70CB7093681D0A0B7177
:102680001C0C1B0E4D718C71CB71D3681C0A0B7224
:102690001A0C1B0E4C728A72CB7230BC704700BF92
:1026A00003460A680C205A604A689A608A68DA60B1
:1026B000704700BF00487047480B00200048704733
:1026C000600B002000487047840B002000487047D2
:1026D0009C0B002000487047C00B0020004870474A
:1026E000D40B002002460C20536830B40B701D0A36
:1026F0001C0C1B0E4D708C70CB7093681D0A0B71F7
:102700001C0C1B0E4D718C71CB71D3681C0A0B72A3
:102710001A0C1B0E4C728A72CB7230BC704700BF11
:1027200003460A680C205A604A689A608A68DA6030
:10273000704700BF00487047F80B00200048704702
:10274000080C0020004870472C0C002000487047FF
:102750003C0C0020074B08491A68084BF0B4876806
:10276000C568074E074C006A3760256008601A602C
:10277000F0BC7047AC300020F8280020F42800207E
:10278000FC2800200029002090F8F804704700BFC2
:10279000006A704700487047F80B002000487047F7
:1027A000080C0020406B704700487047C00B0020A9
:1027B00000487047D40B0020006C704700487047F9
:1027C000080B002000487047240B002010B5044679
:1027D00001211848E36A9A8907F004F9E36A0121A4
:1027E0001548DA8907F0FEF8E36A012113481A8ACE
:1027F00007F0F8F8E36A1248198807F0AFFFE36AB8
:102800001048598807F0AAFFE36A0F48998807F033
:10281000A5FFE36A0D48D98807F0A0FFE36A0C48DA
:10282000198907F09BFFE36A0A485989BDE81040FF
:1028300007F094BF2C280020602800209428002056
:102840004829002050290020582900206029002014
:1028500068290020702900202DE9F04F436883B0DB
:102860000C6805460E469C4200F2B2806C60002C5B
:1028700000F0B78005F1080C33460024042798794E
:10288000BE465A7904370004197993F80780043357
:1028900040EA0222E8680A4342EA0862AA60DCF8D9
:1028A000002040F8242001346A68A242E7D80EF1E3
:1028B00008083B460EF105000EF1060147460EF1F1
:1028C00007040EF1090A0EF10A0B0EF10B090EF1C5
:1028D0000C02715C305C0904F35C345D41EA002059
:1028E0002969034343EA04648C4200F28F802C611F
:1028F000002C00F0968005F1140CF3194FF0000E37
:1029000098783C465A7804370004197893F8038085
:10291000043340EA0222A8690A4342EA08626A6173
:10292000DCF8002040F82E200EF1010E2A697245D5
:10293000E6D804F1050A04F1060B04F10709B846CC
:10294000083416F80B2016F80A10120416F808308E
:1029500016F8097042EA0122E969134343EA07675E
:102960008F424DD8EF617FB3002705F1200CBE46A2
:1029700000233019194610F8012B9A400833202BF8
:1029800041EA0201F7D104F104084144884509D223
:10299000E31C42463344013213F8010F8A4203F824
:1029A000010CF8D308F1FF3872180C4606EB080347
:1029B00002F801EC6A6A2B62DCF8003042F827303A
:1029C0000137EB69BB42D3D8204603B0BDE8F08F96
:1029D000A100C0680BF066F86C60E860002C7FF422
:1029E00049AF4FF008080C224FF00B094FF00A0BCB
:1029F00047464FF0090A072406210520042368E70B
:102A0000B900686A0BF04EF86862ABE7A100A869EC
:102A100001920BF047F8019AA8612C61002C7FF419
:102A20006AAF14468DE700BF0AF0AABA70B50C462B
:102A3000054640680BF05CFA621E0646002326FA43
:102A400003F10833202B02F8011FF8D169683246E0
:102A5000201D08F0DDFEAB68A11906F10C000B711A
:102A6000AB681B0A4B716B898B71EB7ACB71EB688E
:102A70000B72EB681B0A4B72EB898B72EB7BCB7290
:102A800070BD00BF43682DE9F0470B7043681B0A17
:102A90004B70C3888B70C379CB704368002B00F0F8
:102AA00089800A4600250426C36834460432043669
:102AB00053F82530013513704FEA132E1F0C1B0EEF
:102AC00082F801E09770D3704368AB42ECD804F110
:102AD000080204F1050A04F1060904F1070804F1EB
:102AE000090C04F10A0E04F10B0517460C340369B6
:102AF0008B5503691B0A01F80A30438A01F8093033
:102B0000C37C01F80830036903B301EB070C00250F
:102B1000624683693C460432043753F825300CF88A
:102B200025304FEA132E1E0C01351B0E02F803EC64
:102B300002F8026C02F8013C0369AB42E9D804F1E7
:102B4000050C04F1060EE51D3A460834C3698B54A2
:102B5000C3691B0A01F80C30C38B01F80E30C37F28
:102B60004B55C3691BB30F4680460026D8F8243066
:102B70004FEA860953F826000BF0BAF93A190546D0
:102B8000002325FA03F00833202B02F8010BF8D1BB
:102B9000D8F8243004342A460136381953F809107D
:102BA00008F036FED8F81C302C44B342DED820465C
:102BB000BDE8F08708220C240B254FF00A0E1746BB
:102BC0004FF0090C4FF007084FF006094FF0050AC7
:102BD00004268CE770B503790D4606460B708068B5
:102BE0000BF086F92A460446002324FA03F1083341
:102BF000202B02F8011FF8D1B168681D224608F0A9
:102C000007FE601D70BD00BFF8B5838805460E46FF
:102C10000B7083881B0A4B7080680BF069F90446BF
:102C2000B01D230E2246270AB470210C7371F77071
:102C3000A71D3171A96808F0EBFDE8680BF058F9A1
:102C4000631D02460021334422FA01F40831202991
:102C500003F8014FF8D13C1DE9683019144408F01D
:102C6000D7FD28690BF044F932190746002327FAEB
:102C700003F10833202B02F8011BF8D104343A4643
:102C80002969301908F0C4FD6B693A191C0AB3545C
:102C9000B118101D1A0C1B0E4C708A70CB70F8BD49
:102CA000084611460AF092B910B504460E4894ED54
:102CB000021AD4ED030A94ED010A07F059FE94EDCF
:102CC000021AD4ED030A94ED010A084807F050FEF9
:102CD00094ED021AD4ED030A94ED010A0448BDE80C
:102CE000104007F045BE00BF682400209824002053
:102CF000C824002010B403460C680C301C614C68DA
:102D0000DA695C6189685DF8044B9961104700BF1E
:102D1000D0ED017A17EE903AC3F3C752F0B4002A0F
:102D200068D002F560721501C2F307126EB2F5EEBB
:102D3000C07AC3F3C34500245F013543DE10F1EED2
:102D400010FA4FEAE3230C704B7148BF62F07F0228
:102D50008D714C70CA718C70CF700E71D0ED027A8B
:102D600017EE903AC3F3C752002A47D002F56072BB
:102D70001501C2F307126EB2F5EEC07AC3F3C34574
:102D800000245F013543DE10F1EE10FA4FEAE32331
:102D90000C724B7348BF62F07F028D734C72CA7322
:102DA0008C72CF720E73D0ED037A17EE903AC3F3A4
:102DB000C7520AB302F560721401C2F3071265B27A
:102DC000F5EEC07AC3F3C34400205E012C43DD104E
:102DD000F1EE10FA4FEAE32308748C7548BF62F0F5
:102DE0007F02487488741820CE740D754B75CA75AF
:102DF000F0BC704716469AE71546E1E71646BBE772
:102E00002DE9F84F4368824688460B7043681B0AD9
:102E10004B70C3888B70C379CB704368002B58D03C
:102E200000260427DFF8B890DAF81830340108EBF0
:102E3000070B1A591C4413684B4546D160680BF0C8
:102E400057F80BF1FF320546002325FA03F108334A
:102E5000202B02F8011FF8D161682A460BF104000B
:102E600008F0D6FCA3680BEB050105F10C000B7113
:102E7000A3681B0A4B7163898B71E37ACB71E3689A
:102E80000B72E3681B0A4B72E3898B72E37BCB7294
:102E90000136DAF804300744B342C5D87C1CB91CAB
:102EA000FA1C381DDAF81C3008F80730DAF81C3044
:102EB0001B0A08F80430BAF81E3008F801309AF8F6
:102EC0001F3008F80230BDE8F88F59462046984771
:102ED000DEE708200722062105240427E2E700BFD9
:102EE000BD07000070B4CA7803460C3052095A611D
:102EF0000C7942EAC4025A614C7942EAC4245C610A
:102F00008A79D20402F4F00222435A61CD798E7993
:102F10002C0104F4FE6454EA161405D0A4F5607480
:102F200042EAC4525A61CD7925F07F0542EA056232
:102F30005A61CA7A52099A610C7B42EAC4029A61C8
:102F40004C7B42EAC4249C618A7BD20402F4F002E6
:102F500022439A61CD7B8E7B2C0104F4FE6454EAFB
:102F6000161405D0A4F5607442EAC4529A61CD7B70
:102F700025F07F0542EA05629A61CA7C5209DA614E
:102F80000C7D42EAC402DA614C7D42EAC424DC6171
:102F90008A7DD20402F4F0022243DA61CD7D8E7D77
:102FA0002C0104F4FE6454EA161405D0A4F56074F0
:102FB00042EAC452DA61CD7D25F07F0542EA05621E
:102FC000DA61CA7E52095A620C7F42EAC4025A622E
:102FD0004C7F42EAC4245C628A7FD20402F4F0028D
:102FE00022435A62CD7F8E7F2C0104F4FE6454EAA2
:102FF000161405D0A4F5607442EAC4525A62CD7F1B
:1030000025F07F0542EA05625A6291F823205209B1
:103010009A6291F8244042EAC4029A6291F82540EB
:1030200042EAC4249C6291F82620D20402F4F00201
:1030300022439A6291F8275091F826602C0104F4FB
:10304000FE6454EA161406D0A4F5607442EAC45231
:103050009A6291F8275025F07F0542EA05629A624C
:1030600091F82B205209DA6291F82C4042EAC4020E
:10307000DA6291F82D4042EAC424DC6291F82E20F5
:10308000D20402F4F0022243DA6291F82F5091F850
:103090002E602C0104F4FE6454EA161406D0A4F544
:1030A000607442EAC452DA6291F82F5025F07F052D
:1030B000196B42EA056270BCDA620847CA780346B7
:1030C000520930B48260087942EAC0029A604879B5
:1030D00042EAC02098608A79D20402F4F0020243E6
:1030E0009A60CC798D79200100F4FE6050EA1510C9
:1030F00005D0A0F5607042EAC0529A60CC7924F005
:103100007F0442EA04629A60CA7A5209DA60087B54
:1031100042EAC002DA60487B42EAC020D8608A7B7B
:10312000D20402F4F0020243DA60CC7B8D7B2001F2
:1031300000F4FE6050EA151005D0A0F5607042EA78
:10314000C052DA60CC7B24F07F0442EA0462DA6089
:10315000CA7C52091A61087D42EAC0021A61487DA0
:1031600042EAC02018618A7DD20402F4F0020243D0
:103170001A61CC7D8D7D200100F4FE6050EA1510AF
:1031800005D0A0F5607042EAC0521A61CC7D24F0EF
:103190007F0442EA04621A61CA7E52099A61087F7A
:1031A00042EAC0029A61487F42EAC02098618A7F61
:1031B000D20402F4F00202439A61CC7F8D7F200199
:1031C00000F4FE6050EA151005D0A0F5607042EAE8
:1031D000C0529A61CC7F24F07F0442EA04629A6173
:1031E00091F823205209DA6191F8240042EAC002E2
:1031F000DA6191F8250042EAC020D86191F82620D2
:10320000D20402F4F0020243DA6191F8274091F807
:103210002650200100F4FE6050EA151006D0A0F5FB
:10322000607042EAC052DA6191F8274024F07F04CE
:1032300042EA0462DA6191F82B2052091A6291F88D
:103240002C0042EAC0021A6291F82D0042EAC02026
:10325000186291F82E20D20402F4F00202431A629E
:1032600091F82F4091F82E50200100F4FE6050EAB2
:10327000151006D0A0F5607042EAC0521A6291F8AB
:103280002F4024F07F04302042EA046230BC1A62EE
:10329000704700BFCA780346520930B442600879CB
:1032A00042EAC0025A60487942EAC02058608A79EE
:1032B000D20402F4F00202435A60CC798D792001E5
:1032C00000F4FE6050EA151005D0A0F5607042EAE7
:1032D000C0525A60CC7924F07F0442EA04625A60FA
:1032E000CA7A52099A60087B42EAC0029A60487B17
:1032F00042EAC02098608A7BD20402F4F0020243C2
:103300009A60CC7B8D7B200100F4FE6050EA1510A2
:1033100005D0A0F5607042EAC0529A60CC7B24F0E0
:103320007F0442EA04629A60CA7C5209DA60087D2E
:1033300042EAC002DA60487D42EAC020D8608A7D55
:10334000D20402F4F0020243DA60CC7D8D7D2001CC
:1033500000F4FE6050EA151005D0A0F5607042EA56
:10336000C052DA60CC7D24F07F04182042EA046267
:1033700030BCDA60704700BF2DE9F047436804466F
:103380000D680E469D427DD86560002D00F083805B
:10339000002704F1080E4FF0040CB84606EB0C05AC
:1033A0000023681E194610F8012F9A400833202B7D
:1033B00041EA0201F7D101F1040905F1030AB9F16B
:1033C000040F08D9C81C5346284413F8012F834220
:1033D00003F8012CF9D16A1838010C31013782F851
:1033E0000380C4F80CA08C4415F80930A56923614A
:1033F00092F80590291843EA0923236192F8069070
:1034000043EA0943236192F8079043EA0963236181
:10341000137A636192F8099043EA0923636192F891
:103420000A9043EA09436361D27A43EA0263636123
:10343000DEF80C30DEF800A0DEF80490DEF808209C
:1034400045F800A0C1F804908A60CB606368BB4275
:10345000A4D80CF101050CF102010CF103020CF1EE
:10346000040016F80C30E361755D43EA0523E3615F
:10347000715C43EA0143E361B25C43EA0263E361E6
:10348000BDE8F087290180690AF00CFB6560A06146
:10349000002D7FF47DAF08200722062105254FF07F
:1034A000040CDEE72DE9F84F8368064688460B706A
:1034B00083681B0A4B7043898B70C37ACB70836817
:1034C000002B00F0838004274FF0000ADFF81891EA
:1034D000F3694FEA0A1408EB070B1A591C441368E6
:1034E0004B456FD160680AF003FD0BF1FF320546D2
:1034F000002325FA03F10833202B02F8011FF8D12D
:1035000061682A460BF1040008F082F9A3680BEB0E
:10351000050105F10C000B71A3681B0A4B7163894F
:103520008B71E37ACB71E3680B72E3681B0A4B7211
:10353000E3898B72E37BCB720AF1010AB36807441B
:103540005345C5D87C1DB91DFA1D07F1010907F1C6
:10355000020C07F1030E3D1D07F10800336A08F85D
:103560000730336A1B0A08F80930738C08F80C30EE
:1035700096F8233008F80E30736A08F80530736A3D
:103580001B0A08F80430F38C08F8013096F827304D
:1035900008F80230736A9BB1002308EB0004F16A5B
:1035A00008EB0002023031F8131004F81310F16A2E
:1035B00031F813100133090A5170726A9A42EED839
:1035C000BDE8F88F594620469847B5E708254FF0E3
:1035D000070E4FF0060C4FF0050904270C200B22B4
:1035E0000A210924BAE700BFBD0700002DE9F04F0A
:1035F000436983B00F6800F10C0204460D469F42F8
:10360000019200F2BB806761002F00F0C0800027AC
:1036100004F1180E4FF0040CB84605EB0C00002323
:1036200000F1FF39194619F8012F9A400833202B71
:1036300041EA0201F7D101F1040AC61CBAF1040FF4
:1036400009D901F103093346814413F8012F4B4591
:1036500003F8012CF9D142184FEA07190C31013750
:1036600082F80380E6618C4410F80A30A06A236275
:1036700092F805A000EB090143EA0A23236292F8BD
:1036800006A043EA0A43236292F807A043EA0A63CA
:103690002362137A636292F809A043EA0A23636201
:1036A00092F80AA043EA0A436362D27A43EA0263C9
:1036B0006362DEF80C30DEF800B0DEF804A0DEF85D
:1036C000082040F809B0C1F804A08A60CB606369A3
:1036D000BB42A2D80CF105080CF106010CF1070061
:1036E0000CF108070CF1010B0CF1020A0CF10309B3
:1036F0000CF1040E15F80C30226BE36215F80BC0C8
:1037000043EA0C23E36215F80AC043EA0C43E36280
:1037100015F809C043EA0C63E362695C15F808C058
:10372000090415F80E3015F8008041EA0C210B430E
:1037300043EA086890453AD8C4F83080B8F1000FE1
:1037400016D03D4404F1340E0023294615F8132009
:103750000231A06BA28611F8017C42EA0722A28600
:10376000BEF8002020F813200133226B9A42EDD8D6
:10377000E36B019803B0BDE8F04F18473901806A48
:103780000AF090F96761A062002F7FF440AF4FF01C
:10379000080E4FF007094FF0060A4FF0050B4FF0E7
:1037A000040C0C270B200A214FF00908A2E74FEA6E
:1037B0004801A06B0AF076F9A063BDE72DE9F04758
:1037C000836804460E680D469E4200F2AF80A660F4
:1037D000002E00F0B480002704F10C0E4FF0040C12
:1037E000B84605EB0C060023701E194610F8012F91
:1037F0009A400833202B41EA0201F7D101F1040974
:1038000006F1030AB9F1040F08D9C81C5346304425
:1038100013F8012F834203F8012CF9D172183801F3
:103820000C31013782F80380C4F810A08C4416F8DC
:103830000930E669636192F80590311843EA09237B
:10384000636192F8069043EA0943636192F8079036
:1038500043EA09636361137AA36192F8099043EA2A
:103860000923A36192F80A9043EA0943A361D27A3B
:1038700043EA0263A361DEF80C30DEF800A0DEF854
:103880000490DEF8082046F800A0C1F804908A6091
:10389000CB60A368BB42A4D80CF1050E0CF1060165
:1038A0000CF107000CF1010A0CF102090CF10308FC
:1038B0000CF104070CF1080615F80C30626A23625B
:1038C00015F80AC043EA0C23236215F809C043EA3D
:1038D0000C43236215F808C043EA0C632362695C59
:1038E00015F80EE00904EB5D2F5C41EA0E210B4355
:1038F00043EA0767974231D86762A7B1354404F1BC
:10390000280700222B780236E16A0235238515F854
:10391000010C43EA002323853B8821F81230013251
:10392000636A9342EED83046BDE8F0873101C06942
:103930000AF0B8F8A660E061002E7FF44CAF0827CB
:103940004FF007084FF006094FF0050A4FF0040C3E
:103950000C260B200A214FF0090EADE77900E06A32
:103960000AF0A0F8E062C7E7D0ED027A17EE903ACD
:10397000C3F3C752F0B4002A00F0EA8002F5607287
:103980001501C2F307126EB2F5EEC07AC3F3C34558
:1039900000245F013543DE10F1EE10FA4FEAE32315
:1039A0000C704B7148BF62F07F028D714C70CA7110
:1039B0008C70CF700E71D0ED037A17EE903AC3F38E
:1039C000C752002A00F0CE8002F560721501C2F3E2
:1039D00007126EB2F5EEC07AC3F3C34500245F014F
:1039E0003543DE10F1EE10FA4FEAE3230C724B730D
:1039F00048BF62F07F028D734C72CA738C72CF72B3
:103A00000E73D0ED047A17EE903AC3F3C752002A32
:103A100000F0A68002F560721501C2F307126EB2C3
:103A2000F5EEC07AC3F3C34500245F013543DE10D1
:103A3000F1EE10FA4FEAE3230C744B7548BF62F0C5
:103A40007F028D754C74CA758C74CF740E75D0ED71
:103A5000067A17EE903AC3F3C752002A7ED002F5D9
:103A600060721501C2F307126EB2F5EEC07AC3F3AD
:103A7000C34500245F013543DE10F1EE10FA4FEA32
:103A8000E3230C764B7748BF62F07F028D774C764C
:103A9000CA778C76CF760E77D0ED077A17EE903A0C
:103AA000C3F3C752002A57D002F560721501C2F362
:103AB00007126EB2F5EEC07AC3F3C34500245F016E
:103AC0003543DE10F1EE10FA4FEAE32381F820408F
:103AD00081F8253048BF62F07F0281F8265081F8D6
:103AE000214081F8272081F8224081F8237081F855
:103AF0002460D0ED087A17EE903AC3F3C7524AB368
:103B000002F560721401C2F3071265B2F5EEC07AD5
:103B1000C3F3C34400205E012C43DD10F1EE10FA24
:103B20004FEAE32381F8280081F82E4048BF62F075
:103B30007F0281F8290081F82A00302081F82B606B
:103B400081F82C5081F82D3081F82F20F0BC70477F
:103B5000164619E71546D9E71646ABE7164684E739
:103B600016465DE7164635E7D0ED027A17EE903A35
:103B7000C3F3C752F0B4002A00F0758102F56072F9
:103B80001501C2F307126EB2F5EEC07AC3F3C34556
:103B900000245F013543DE10F1EE10FA4FEAE32313
:103BA0000C704B7148BF62F07F028D714C70CA710E
:103BB0008C70CF700E71D0ED037A17EE903AC3F38C
:103BC000C752002A00F05F8102F560721501C2F34E
:103BD00007126EB2F5EEC07AC3F3C34500245F014D
:103BE0003543DE10F1EE10FA4FEAE3230C724B730B
:103BF00048BF62F07F028D734C72CA738C72CF72B1
:103C00000E73D0ED047A17EE903AC3F3C752002A30
:103C100000F0378102F560721501C2F307126EB22F
:103C2000F5EEC07AC3F3C34500245F013543DE10CF
:103C3000F1EE10FA4FEAE3230C744B7548BF62F0C3
:103C40007F028D754C74CA758C74CF740E75D0ED6F
:103C5000067A17EE903AC3F3C752002A00F00F819C
:103C600002F560721501C2F307126EB2F5EEC07A6A
:103C7000C3F3C34500245F013543DE10F1EE10FAB3
:103C80004FEAE3230C764B7748BF62F07F028D77D3
:103C90004C76CA778C76CF760E77D0ED077A17EE12
:103CA000903AC3F3C752002A00F0E78002F5607231
:103CB0001501C2F307126EB2F5EEC07AC3F3C34525
:103CC00000245F013543DE10F1EE10FA4FEAE323E2
:103CD00081F8204081F8253048BF62F07F0281F8EA
:103CE000265081F8214081F8272081F8224081F870
:103CF000237081F82460D0ED087A17EE903AC3F370
:103D0000C752002A00F0B78002F560721501C2F3B5
:103D100007126EB2F5EEC07AC3F3C34500245F010B
:103D20003543DE10F1EE10FA4FEAE32381F8284024
:103D300081F82D3048BF62F07F0281F82E5081F863
:103D4000294081F82F2081F82A4081F82B7081F8D2
:103D50002C60D0ED0A7A17EE903AC3F3C752002ACE
:103D600000F0878002F560721501C2F307126EB28F
:103D7000F5EEC07AC3F3C34500245F013543DE107E
:103D8000F1EE10FA4FEAE32381F8304081F8353044
:103D900048BF62F07F0281F8365081F8314081F8E7
:103DA000372081F8324081F8337081F83460D0EDEB
:103DB0000B7A17EE903AC3F3C752002A57D002F598
:103DC00060721501C2F307126EB2F5EEC07AC3F34A
:103DD000C34500245F013543DE10F1EE10FA4FEACF
:103DE000E32381F8384081F83D3048BF62F07F021C
:103DF00081F83E5081F8394081F83F2081F83A40FF
:103E000081F83B7081F83C60D0ED0C7A17EE903A67
:103E1000C3F3C7524AB302F560721401C2F307122A
:103E200065B2F5EEC07AC3F3C34400205E012C43B3
:103E3000DD10F1EE10FA4FEAE32381F8400081F83B
:103E4000464048BF62F07F0281F8410081F842009D
:103E5000482081F8436081F8445081F8453081F86A
:103E60004720F0BC704716468EE61546D9E7164641
:103E7000ABE716467CE716464CE716461CE71646A7
:103E8000F4E61646CCE61646A4E600BFCA7803461A
:103E9000520930B48260087942EAC0029A604879D7
:103EA00042EAC02098608A79D20402F4F002024308
:103EB0009A60CC798D79200100F4FE6050EA1510EB
:103EC00005D0A0F5607042EAC0529A60CC7924F027
:103ED0007F0442EA04629A60CA7A5209DA60087B77
:103EE00042EAC002DA60487B42EAC020D8608A7B9E
:103EF000D20402F4F0020243DA60CC7B8D7B200115
:103F000000F4FE6050EA151005D0A0F5607042EA9A
:103F1000C052DA60CC7B24F07F0442EA0462DA60AB
:103F2000CA7C52091A61087D42EAC0021A61487DC2
:103F300042EAC02018618A7DD20402F4F0020243F2
:103F40001A61CC7D8D7D200100F4FE6050EA1510D1
:103F500005D0A0F5607042EAC0521A61CC7D24F011
:103F60007F0442EA04621A61CA7E52099A61087F9C
:103F700042EAC0029A61487F42EAC02098618A7F83
:103F8000D20402F4F00202439A61CC7F8D7F2001BB
:103F900000F4FE6050EA151005D0A0F5607042EA0A
:103FA000C0529A61CC7F24F07F0442EA04629A6195
:103FB00091F823205209DA6191F8240042EAC00204
:103FC000DA6191F8250042EAC020D86191F82620F4
:103FD000D20402F4F0020243DA6191F8274091F82A
:103FE0002650200100F4FE6050EA151006D0A0F51E
:103FF000607042EAC052DA6191F8274024F07F04F1
:1040000042EA0462DA6191F82B2052091A6291F8AF
:104010002C0042EAC0021A6291F82D0042EAC02048
:10402000186291F82E20D20402F4F00202431A62C0
:1040300091F82F4091F82E50200100F4FE6050EAD4
:10404000151006D0A0F5607042EAC0521A6291F8CD
:104050002F4024F07F0442EA04621A6291F8332070
:1040600052099A6291F8340042EAC0029A6291F8C9
:10407000350042EAC020986291F83620D20402F45A
:10408000F00202439A6291F8374091F836502001CD
:1040900000F4FE6050EA151006D0A0F5607042EA08
:1040A000C0529A6291F8374024F07F0442EA0462D9
:1040B0009A6291F83B205209DA6291F83C0042EA98
:1040C000C002DA6291F83D0042EAC020D86291F85D
:1040D0003E20D20402F4F0020243DA6291F83F403B
:1040E00091F83E50200100F4FE6050EA151006D011
:1040F000A0F5607042EAC052DA6291F83F4024F0C5
:104100007F0442EA0462DA6291F8432052091A639A
:1041100091F8440042EAC0021A6391F8450042EA6D
:10412000C020186391F84620D20402F4F002024342
:104130001A6391F8474091F84650200100F4FE6060
:1041400050EA151006D0A0F5607042EAC0521A631A
:1041500091F8474024F07F04482042EA046230BCD2
:104160001A637047F0B5394985B00322384C0368AB
:1041700001918DF80820039436491B688B4255D174
:1041800000233821054600F50A7704F1300E80F847
:10419000232280F8241280F8253280F8263280F815
:1041A00027322646103710340FCE764547F8100CCC
:1041B00047F80C1C47F8082C47F8043CF1D10023C1
:1041C00007264FF0FF0C4FF0FE0E1A4603CC344684
:1041D0003860C22079603D2785F81F3205F25F21E3
:1041E00085F8223205F2212385F8216285F81CC268
:1041F00085F81DE285F81E7285F8200201E013F8AB
:10420000014F8B422244FAD1D2436C68124E05F51D
:10421000077085F8602223685B68B3420DD14521A1
:1042200008F0D4FE4FF0FF3005B0F0BD01AA072121
:1042300098474FF0FF3005B0F0BD014645222046BB
:1042400098474FF0FF3005B0F0BD00BFEC030020F1
:10425000600C0020ED1F0000310A00006329F8B552
:1042600003DD90F8F844002C48D0054613680E464C
:10427000104605F223211B689847C0F307275FFA11
:1042800080FE46F30722FF234FF0FE0C0EEB0701E2
:10429000F4B285F82222421C6FEA010185F81EE281
:1042A00085F81F7285F81C3285F81DC285F820122A
:1042B00085F821420DDB00F2222105F221230022A4
:1042C000294401E013F8014F99422244FAD1D34323
:1042D000DBB200F108042A18B4F5007F82F823321B
:1042E00014DC6A6805F507700B4E13685B68B3420F
:1042F00006D1214608F06AFE2046F8BD2046F8BDEA
:1043000001461046224698472046F8BD2846BDE89B
:10431000F840FFF727BF00BF310A0000204B1A68A2
:10432000136850681968936810B404681940D0681D
:1043300004421BD0137C03F0030309B143F00403D0
:1043400043F008039910013B11740D2B0BD8DFE8E3
:1043500003F021071B070A152121150A071B072156
:104360005369013B53615DF8044B7047137C03F0C4
:1043700003030029E6D043F00403E3E753695DF843
:10438000044B023B5361704753695DF8044B0233A1
:104390005361704753695DF8044B013353617047B3
:1043A000C0260020204B5A6813685068196893682B
:1043B00010B404681940D06804421BD0137C03F089
:1043C000030309B143F0040343F008039910013BD0
:1043D00011740D2B0BD8DFE803F021071B070A151A
:1043E0002121150A071B07215369013B53615DF821
:1043F000044B7047137C03F003030029E6D043F01D
:104400000403E3E753695DF8044B023B53617047D3
:1044100053695DF8044B02335361704753695DF88B
:10442000044B013353617047C0260020204B9A682B
:10443000136850681968936810B404681940D0680C
:1044400004421BD0137C03F0030309B143F00403BF
:1044500043F008039910013B11740D2B0BD8DFE8D2
:1044600003F021071B070A152121150A071B072145
:104470005369013B53615DF8044B7047137C03F0B3
:1044800003030029E6D043F00403E3E753695DF832
:10449000044B023B5361704753695DF8044B023390
:1044A0005361704753695DF8044B013353617047A2
:1044B000C0260020204BDA6813685068196893689A
:1044C00010B404681940D06804421BD0137C03F078
:1044D000030309B143F0040343F008039910013BBF
:1044E00011740D2B0BD8DFE803F021071B070A1509
:1044F0002121150A071B07215369013B53615DF810
:10450000044B7047137C03F003030029E6D043F00B
:104510000403E3E753695DF8044B023B53617047C2
:1045200053695DF8044B02335361704753695DF87A
:10453000044B013353617047C0260020204B1A6999
:10454000136850681968936810B404681940D068FB
:1045500004421BD0137C03F0030309B143F00403AE
:1045600043F008039910013B11740D2B0BD8DFE8C1
:1045700003F021071B070A152121150A071B072134
:104580005369013B53615DF8044B7047137C03F0A2
:1045900003030029E6D043F00403E3E753695DF821
:1045A000044B023B5361704753695DF8044B02337F
:1045B0005361704753695DF8044B01335361704791
:1045C000C0260020204B5A69136850681968936808
:1045D00010B404681940D06804421BD0137C03F067
:1045E000030309B143F0040343F008039910013BAE
:1045F00011740D2B0BD8DFE803F021071B070A15F8
:104600002121150A071B07215369013B53615DF8FE
:10461000044B7047137C03F003030029E6D043F0FA
:104620000403E3E753695DF8044B023B53617047B1
:1046300053695DF8044B02335361704753695DF869
:10464000044B013353617047C0260020204B9A6908
:10465000136850681968936810B404681940D068EA
:1046600004421BD0137C03F0030309B143F004039D
:1046700043F008039910013B11740D2B0BD8DFE8B0
:1046800003F021071B070A152121150A071B072123
:104690005369013B53615DF8044B7047137C03F091
:1046A00003030029E6D043F00403E3E753695DF810
:1046B000044B023B5361704753695DF8044B02336E
:1046C0005361704753695DF8044B01335361704780
:1046D000C0260020204BDA69136850681968936877
:1046E00010B404681940D06804421BD0137C03F056
:1046F000030309B143F0040343F008039910013B9D
:1047000011740D2B0BD8DFE803F021071B070A15E6
:104710002121150A071B07215369013B53615DF8ED
:10472000044B7047137C03F003030029E6D043F0E9
:104730000403E3E753695DF8044B023B53617047A0
:1047400053695DF8044B02335361704753695DF858
:10475000044B013353617047C0260020204B1A6A76
:10476000136850681968936810B404681940D068D9
:1047700004421BD0137C03F0030309B143F004038C
:1047800043F008039910013B11740D2B0BD8DFE89F
:1047900003F021071B070A152121150A071B072112
:1047A0005369013B53615DF8044B7047137C03F080
:1047B00003030029E6D043F00403E3E753695DF8FF
:1047C000044B023B5361704753695DF8044B02335D
:1047D0005361704753695DF8044B0133536170476F
:1047E000C0260020204B5A6A1368506819689368E5
:1047F00010B404681940D06804421BD0137C03F045
:10480000030309B143F0040343F008039910013B8B
:1048100011740D2B0BD8DFE803F021071B070A15D5
:104820002121150A071B07215369013B53615DF8DC
:10483000044B7047137C03F003030029E6D043F0D8
:104840000403E3E753695DF8044B023B536170478F
:1048500053695DF8044B02335361704753695DF847
:10486000044B013353617047C0260020204B9A6AE5
:10487000136850681968936810B404681940D068C8
:1048800004421BD0137C03F0030309B143F004037B
:1048900043F008039910013B11740D2B0BD8DFE88E
:1048A00003F021071B070A152121150A071B072101
:1048B0005369013B53615DF8044B7047137C03F06F
:1048C00003030029E6D043F00403E3E753695DF8EE
:1048D000044B023B5361704753695DF8044B02334C
:1048E0005361704753695DF8044B0133536170475E
:1048F000C0260020204BDA6A136850681968936854
:1049000010B404681940D06804421BD0137C03F033
:10491000030309B143F0040343F008039910013B7A
:1049200011740D2B0BD8DFE803F021071B070A15C4
:104930002121150A071B07215369013B53615DF8CB
:10494000044B7047137C03F003030029E6D043F0C7
:104950000403E3E753695DF8044B023B536170477E
:1049600053695DF8044B02335361704753695DF836
:10497000044B013353617047C0260020204B1A6B53
:10498000136850681968936810B404681940D068B7
:1049900004421BD0137C03F0030309B143F004036A
:1049A00043F008039910013B11740D2B0BD8DFE87D
:1049B00003F021071B070A152121150A071B0721F0
:1049C0005369013B53615DF8044B7047137C03F05E
:1049D00003030029E6D043F00403E3E753695DF8DD
:1049E000044B023B5361704753695DF8044B02333B
:1049F0005361704753695DF8044B0133536170474D
:104A0000C0260020204B5A6B1368506819689368C1
:104A100010B404681940D06804421BD0137C03F022
:104A2000030309B143F0040343F008039910013B69
:104A300011740D2B0BD8DFE803F021071B070A15B3
:104A40002121150A071B07215369013B53615DF8BA
:104A5000044B7047137C03F003030029E6D043F0B6
:104A60000403E3E753695DF8044B023B536170476D
:104A700053695DF8044B02335361704753695DF825
:104A8000044B013353617047C0260020204B9A6BC2
:104A9000136850681968936810B404681940D068A6
:104AA00004421BD0137C03F0030309B143F0040359
:104AB00043F008039910013B11740D2B0BD8DFE86C
:104AC00003F021071B070A152121150A071B0721DF
:104AD0005369013B53615DF8044B7047137C03F04D
:104AE00003030029E6D043F00403E3E753695DF8CC
:104AF000044B023B5361704753695DF8044B02332A
:104B00005361704753695DF8044B0133536170473B
:104B1000C0260020214BD3F8BC20136850681968C8
:104B2000936810B404681940D06804421BD0137C09
:104B300003F0030309B143F0040343F008039910A1
:104B4000013B11740D2B0BD8DFE803F021071B0785
:104B50000A152121150A071B07215369013B5361DF
:104B60005DF8044B7047137C03F003030029E6D083
:104B700043F00403E3E753695DF8044B023B5361E0
:104B8000704753695DF8044B0233536170475369B2
:104B90005DF8044B01335361704700BFC02600200D
:104BA000214BD3F8C020136850681968936810B47B
:104BB00004681940D06804421BD0137C03F003033F
:104BC00009B143F0040343F008039910013B117449
:104BD0000D2B0BD8DFE803F021071B070A15212155
:104BE000150A071B07215369013B53615DF8044B0C
:104BF0007047137C03F003030029E6D043F004035D
:104C0000E3E753695DF8044B023B53617047536916
:104C10005DF8044B02335361704753695DF8044BF0
:104C200001335361704700BFC0260020214BD3F8E9
:104C3000C420136850681968936810B40468194058
:104C4000D06804421BD0137C03F0030309B143F086
:104C5000040343F008039910013B11740D2B0BD88A
:104C6000DFE803F021071B070A152121150A071B9E
:104C700007215369013B53615DF8044B7047137C76
:104C800003F003030029E6D043F00403E3E753698C
:104C90005DF8044B023B5361704753695DF8044B68
:104CA00002335361704753695DF8044B013353611C
:104CB000704700BFC0260020214BD3F8C8201368DE
:104CC00050681968936810B404681940D0680442A9
:104CD0001BD0137C03F0030309B143F0040343F03A
:104CE00008039910013B11740D2B0BD8DFE803F07A
:104CF00021071B070A152121150A071B07215369E4
:104D0000013B53615DF8044B7047137C03F00303D0
:104D10000029E6D043F00403E3E753695DF8044B50
:104D2000023B5361704753695DF8044B0233536192
:104D3000704753695DF8044B01335361704700BFFE
:104D4000C0260020214BD3F8CC2013685068196886
:104D5000936810B404681940D06804421BD0137CD7
:104D600003F0030309B143F0040343F0080399106F
:104D7000013B11740D2B0BD8DFE803F021071B0753
:104D80000A152121150A071B07215369013B5361AD
:104D90005DF8044B7047137C03F003030029E6D051
:104DA00043F00403E3E753695DF8044B023B5361AE
:104DB000704753695DF8044B023353617047536980
:104DC0005DF8044B01335361704700BFC0260020DB
:104DD000214BD3F8D020136850681968936810B439
:104DE00004681940D06804421BD0137C03F003030D
:104DF00009B143F0040343F008039910013B117417
:104E00000D2B0BD8DFE803F021071B070A15212122
:104E1000150A071B07215369013B53615DF8044BD9
:104E20007047137C03F003030029E6D043F004032A
:104E3000E3E753695DF8044B023B536170475369E4
:104E40005DF8044B02335361704753695DF8044BBE
:104E500001335361704700BFC0260020214BD3F8B7
:104E6000D420136850681968936810B40468194016
:104E7000D06804421BD0137C03F0030309B143F054
:104E8000040343F008039910013B11740D2B0BD858
:104E9000DFE803F021071B070A152121150A071B6C
:104EA00007215369013B53615DF8044B7047137C44
:104EB00003F003030029E6D043F00403E3E753695A
:104EC0005DF8044B023B5361704753695DF8044B36
:104ED00002335361704753695DF8044B01335361EA
:104EE000704700BFC0260020214BD3F8D82013689C
:104EF00050681968936810B404681940D068044277
:104F00001BD0137C03F0030309B143F0040343F007
:104F100008039910013B11740D2B0BD8DFE803F047
:104F200021071B070A152121150A071B07215369B1
:104F3000013B53615DF8044B7047137C03F003039E
:104F40000029E6D043F00403E3E753695DF8044B1E
:104F5000023B5361704753695DF8044B0233536160
:104F6000704753695DF8044B01335361704700BFCC
:104F7000C0260020204BDA6B1368506819689368CC
:104F800010B404681940D06804421BD0137C03F0AD
:104F9000030309B143F0040343F008039910013BF4
:104FA00011740D2B0BD8DFE803F021071B070A153E
:104FB0002121150A071B07215369013B53615DF845
:104FC000044B7047137C03F003030029E6D043F041
:104FD0000403E3E753695DF8044B023B53617047F8
:104FE00053695DF8044B02335361704753695DF8B0
:104FF000044B013353617047C0260020204B1A6CCC
:10500000136850681968936810B404681940D06830
:1050100004421BD0137C03F0030309B143F00403E3
:1050200043F008039910013B11740D2B0BD8DFE8F6
:1050300003F021071B070A152121150A071B072169
:105040005369013B53615DF8044B7047137C03F0D7
:1050500003030029E6D043F00403E3E753695DF856
:10506000044B023B5361704753695DF8044B0233B4
:105070005361704753695DF8044B013353617047C6
:10508000C0260020204B5A6C13685068196893683A
:1050900010B404681940D06804421BD0137C03F09C
:1050A000030309B143F0040343F008039910013BE3
:1050B00011740D2B0BD8DFE803F021071B070A152D
:1050C0002121150A071B07215369013B53615DF834
:1050D000044B7047137C03F003030029E6D043F030
:1050E0000403E3E753695DF8044B023B53617047E7
:1050F00053695DF8044B02335361704753695DF89F
:10510000044B013353617047C0260020204B9A6C3A
:10511000136850681968936810B404681940D0681F
:1051200004421BD0137C03F0030309B143F00403D2
:1051300043F008039910013B11740D2B0BD8DFE8E5
:1051400003F021071B070A152121150A071B072158
:105150005369013B53615DF8044B7047137C03F0C6
:1051600003030029E6D043F00403E3E753695DF845
:10517000044B023B5361704753695DF8044B0233A3
:105180005361704753695DF8044B013353617047B5
:10519000C0260020204BDA6C1368506819689368A9
:1051A00010B404681940D06804421BD0137C03F08B
:1051B000030309B143F0040343F008039910013BD2
:1051C00011740D2B0BD8DFE803F021071B070A151C
:1051D0002121150A071B07215369013B53615DF823
:1051E000044B7047137C03F003030029E6D043F01F
:1051F0000403E3E753695DF8044B023B53617047D6
:1052000053695DF8044B02335361704753695DF88D
:10521000044B013353617047C0260020204B1A6DA8
:10522000136850681968936810B404681940D0680E
:1052300004421BD0137C03F0030309B143F00403C1
:1052400043F008039910013B11740D2B0BD8DFE8D4
:1052500003F021071B070A152121150A071B072147
:105260005369013B53615DF8044B7047137C03F0B5
:1052700003030029E6D043F00403E3E753695DF834
:10528000044B023B5361704753695DF8044B023392
:105290005361704753695DF8044B013353617047A4
:1052A000C0260020204B5A6D136850681968936817
:1052B00010B404681940D06804421BD0137C03F07A
:1052C000030309B143F0040343F008039910013BC1
:1052D00011740D2B0BD8DFE803F021071B070A150B
:1052E0002121150A071B07215369013B53615DF812
:1052F000044B7047137C03F003030029E6D043F00E
:105300000403E3E753695DF8044B023B53617047C4
:1053100053695DF8044B02335361704753695DF87C
:10532000044B013353617047C0260020204B9A6D17
:10533000136850681968936810B404681940D068FD
:1053400004421BD0137C03F0030309B143F00403B0
:1053500043F008039910013B11740D2B0BD8DFE8C3
:1053600003F021071B070A152121150A071B072136
:105370005369013B53615DF8044B7047137C03F0A4
:1053800003030029E6D043F00403E3E753695DF823
:10539000044B023B5361704753695DF8044B023381
:1053A0005361704753695DF8044B01335361704793
:1053B000C0260020204BDA6D136850681968936886
:1053C00010B404681940D06804421BD0137C03F069
:1053D000030309B143F0040343F008039910013BB0
:1053E00011740D2B0BD8DFE803F021071B070A15FA
:1053F0002121150A071B07215369013B53615DF801
:10540000044B7047137C03F003030029E6D043F0FC
:105410000403E3E753695DF8044B023B53617047B3
:1054200053695DF8044B02335361704753695DF86B
:10543000044B013353617047C0260020204B1A6E85
:10544000136850681968936810B404681940D068EC
:1054500004421BD0137C03F0030309B143F004039F
:1054600043F008039910013B11740D2B0BD8DFE8B2
:1054700003F021071B070A152121150A071B072125
:105480005369013B53615DF8044B7047137C03F093
:1054900003030029E6D043F00403E3E753695DF812
:1054A000044B023B5361704753695DF8044B023370
:1054B0005361704753695DF8044B01335361704782
:1054C000C0260020204B5A6E1368506819689368F4
:1054D00010B404681940D06804421BD0137C03F058
:1054E000030309B143F0040343F008039910013B9F
:1054F00011740D2B0BD8DFE803F021071B070A15E9
:105500002121150A071B07215369013B53615DF8EF
:10551000044B7047137C03F003030029E6D043F0EB
:105520000403E3E753695DF8044B023B53617047A2
:1055300053695DF8044B02335361704753695DF85A
:10554000044B013353617047C0260020204B9A6EF4
:10555000136850681968936810B404681940D068DB
:1055600004421BD0137C03F0030309B143F004038E
:1055700043F008039910013B11740D2B0BD8DFE8A1
:1055800003F021071B070A152121150A071B072114
:105590005369013B53615DF8044B7047137C03F082
:1055A00003030029E6D043F00403E3E753695DF801
:1055B000044B023B5361704753695DF8044B02335F
:1055C0005361704753695DF8044B01335361704771
:1055D000C0260020204BDA6E136850681968936863
:1055E00010B404681940D06804421BD0137C03F047
:1055F000030309B143F0040343F008039910013B8E
:1056000011740D2B0BD8DFE803F021071B070A15D7
:105610002121150A071B07215369013B53615DF8DE
:10562000044B7047137C03F003030029E6D043F0DA
:105630000403E3E753695DF8044B023B5361704791
:1056400053695DF8044B02335361704753695DF849
:10565000044B013353617047C0260020204B1A6F62
:10566000136850681968936810B404681940D068CA
:1056700004421BD0137C03F0030309B143F004037D
:1056800043F008039910013B11740D2B0BD8DFE890
:1056900003F021071B070A152121150A071B072103
:1056A0005369013B53615DF8044B7047137C03F071
:1056B00003030029E6D043F00403E3E753695DF8F0
:1056C000044B023B5361704753695DF8044B02334E
:1056D0005361704753695DF8044B01335361704760
:1056E000C0260020204B5A6F1368506819689368D1
:1056F00010B404681940D06804421BD0137C03F036
:10570000030309B143F0040343F008039910013B7C
:1057100011740D2B0BD8DFE803F021071B070A15C6
:105720002121150A071B07215369013B53615DF8CD
:10573000044B7047137C03F003030029E6D043F0C9
:105740000403E3E753695DF8044B023B5361704780
:1057500053695DF8044B02335361704753695DF838
:10576000044B013353617047C0260020204B9A6FD1
:10577000136850681968936810B404681940D068B9
:1057800004421BD0137C03F0030309B143F004036C
:1057900043F008039910013B11740D2B0BD8DFE87F
:1057A00003F021071B070A152121150A071B0721F2
:1057B0005369013B53615DF8044B7047137C03F060
:1057C00003030029E6D043F00403E3E753695DF8DF
:1057D000044B023B5361704753695DF8044B02333D
:1057E0005361704753695DF8044B0133536170474F
:1057F000C0260020204BDA6F136850681968936840
:1058000010B404681940D06804421BD0137C03F024
:10581000030309B143F0040343F008039910013B6B
:1058200011740D2B0BD8DFE803F021071B070A15B5
:105830002121150A071B07215369013B53615DF8BC
:10584000044B7047137C03F003030029E6D043F0B8
:105850000403E3E753695DF8044B023B536170476F
:1058600053695DF8044B02335361704753695DF827
:10587000044B013353617047C0260020214BD3F8FD
:105880008020136850681968936810B40468194040
:10589000D06804421BD0137C03F0030309B143F02A
:1058A000040343F008039910013B11740D2B0BD82E
:1058B000DFE803F021071B070A152121150A071B42
:1058C00007215369013B53615DF8044B7047137C1A
:1058D00003F003030029E6D043F00403E3E7536930
:1058E0005DF8044B023B5361704753695DF8044B0C
:1058F00002335361704753695DF8044B01335361C0
:10590000704700BFC0260020214BD3F884201368C5
:1059100050681968936810B404681940D06804424C
:105920001BD0137C03F0030309B143F0040343F0DD
:1059300008039910013B11740D2B0BD8DFE803F01D
:1059400021071B070A152121150A071B0721536987
:10595000013B53615DF8044B7047137C03F0030374
:105960000029E6D043F00403E3E753695DF8044BF4
:10597000023B5361704753695DF8044B0233536136
:10598000704753695DF8044B01335361704700BFA2
:10599000C0260020214BD3F888201368506819686E
:1059A000936810B404681940D06804421BD0137C7B
:1059B00003F0030309B143F0040343F00803991013
:1059C000013B11740D2B0BD8DFE803F021071B07F7
:1059D0000A152121150A071B07215369013B536151
:1059E0005DF8044B7047137C03F003030029E6D0F5
:1059F00043F00403E3E753695DF8044B023B536152
:105A0000704753695DF8044B023353617047536923
:105A10005DF8044B01335361704700BFC02600207E
:105A2000214BD3F88C20136850681968936810B420
:105A300004681940D06804421BD0137C03F00303B0
:105A400009B143F0040343F008039910013B1174BA
:105A50000D2B0BD8DFE803F021071B070A152121C6
:105A6000150A071B07215369013B53615DF8044B7D
:105A70007047137C03F003030029E6D043F00403CE
:105A8000E3E753695DF8044B023B53617047536988
:105A90005DF8044B02335361704753695DF8044B62
:105AA00001335361704700BFC0260020214BD3F85B
:105AB0009020136850681968936810B404681940FE
:105AC000D06804421BD0137C03F0030309B143F0F8
:105AD000040343F008039910013B11740D2B0BD8FC
:105AE000DFE803F021071B070A152121150A071B10
:105AF00007215369013B53615DF8044B7047137CE8
:105B000003F003030029E6D043F00403E3E75369FD
:105B10005DF8044B023B5361704753695DF8044BD9
:105B200002335361704753695DF8044B013353618D
:105B3000704700BFC0260020214BD3F89420136883
:105B400050681968936810B404681940D06804421A
:105B50001BD0137C03F0030309B143F0040343F0AB
:105B600008039910013B11740D2B0BD8DFE803F0EB
:105B700021071B070A152121150A071B0721536955
:105B8000013B53615DF8044B7047137C03F0030342
:105B90000029E6D043F00403E3E753695DF8044BC2
:105BA000023B5361704753695DF8044B0233536104
:105BB000704753695DF8044B01335361704700BF70
:105BC000C0260020214BD3F898201368506819682C
:105BD000936810B404681940D06804421BD0137C49
:105BE00003F0030309B143F0040343F008039910E1
:105BF000013B11740D2B0BD8DFE803F021071B07C5
:105C00000A152121150A071B07215369013B53611E
:105C10005DF8044B7047137C03F003030029E6D0C2
:105C200043F00403E3E753695DF8044B023B53611F
:105C3000704753695DF8044B0233536170475369F1
:105C40005DF8044B01335361704700BFC02600204C
:105C5000214BD3F89C20136850681968936810B4DE
:105C600004681940D06804421BD0137C03F003037E
:105C700009B143F0040343F008039910013B117488
:105C80000D2B0BD8DFE803F021071B070A15212194
:105C9000150A071B07215369013B53615DF8044B4B
:105CA0007047137C03F003030029E6D043F004039C
:105CB000E3E753695DF8044B023B53617047536956
:105CC0005DF8044B02335361704753695DF8044B30
:105CD00001335361704700BFC0260020214BD3F829
:105CE000A020136850681968936810B404681940BC
:105CF000D06804421BD0137C03F0030309B143F0C6
:105D0000040343F008039910013B11740D2B0BD8C9
:105D1000DFE803F021071B070A152121150A071BDD
:105D200007215369013B53615DF8044B7047137CB5
:105D300003F003030029E6D043F00403E3E75369CB
:105D40005DF8044B023B5361704753695DF8044BA7
:105D500002335361704753695DF8044B013353615B
:105D6000704700BFC0260020214BD3F8A420136841
:105D700050681968936810B404681940D0680442E8
:105D80001BD0137C03F0030309B143F0040343F079
:105D900008039910013B11740D2B0BD8DFE803F0B9
:105DA00021071B070A152121150A071B0721536923
:105DB000013B53615DF8044B7047137C03F0030310
:105DC0000029E6D043F00403E3E753695DF8044B90
:105DD000023B5361704753695DF8044B02335361D2
:105DE000704753695DF8044B01335361704700BF3E
:105DF000C0260020214BD3F8A820136850681968EA
:105E0000936810B404681940D06804421BD0137C16
:105E100003F0030309B143F0040343F008039910AE
:105E2000013B11740D2B0BD8DFE803F021071B0792
:105E30000A152121150A071B07215369013B5361EC
:105E40005DF8044B7047137C03F003030029E6D090
:105E500043F00403E3E753695DF8044B023B5361ED
:105E6000704753695DF8044B0233536170475369BF
:105E70005DF8044B01335361704700BFC02600201A
:105E8000214BD3F8AC20136850681968936810B49C
:105E900004681940D06804421BD0137C03F003034C
:105EA00009B143F0040343F008039910013B117456
:105EB0000D2B0BD8DFE803F021071B070A15212162
:105EC000150A071B07215369013B53615DF8044B19
:105ED0007047137C03F003030029E6D043F004036A
:105EE000E3E753695DF8044B023B53617047536924
:105EF0005DF8044B02335361704753695DF8044BFE
:105F000001335361704700BFC0260020214BD3F8F6
:105F1000B020136850681968936810B40468194079
:105F2000D06804421BD0137C03F0030309B143F093
:105F3000040343F008039910013B11740D2B0BD897
:105F4000DFE803F021071B070A152121150A071BAB
:105F500007215369013B53615DF8044B7047137C83
:105F600003F003030029E6D043F00403E3E7536999
:105F70005DF8044B023B5361704753695DF8044B75
:105F800002335361704753695DF8044B0133536129
:105F9000704700BFC0260020214BD3F8B4201368FF
:105FA00050681968936810B404681940D0680442B6
:105FB0001BD0137C03F0030309B143F0040343F047
:105FC00008039910013B11740D2B0BD8DFE803F087
:105FD00021071B070A152121150A071B07215369F1
:105FE000013B53615DF8044B7047137C03F00303DE
:105FF0000029E6D043F00403E3E753695DF8044B5E
:10600000023B5361704753695DF8044B023353619F
:10601000704753695DF8044B01335361704700BF0B
:10602000C0260020214BD3F8B820136850681968A7
:10603000936810B404681940D06804421BD0137CE4
:1060400003F0030309B143F0040343F0080399107C
:10605000013B11740D2B0BD8DFE803F021071B0760
:106060000A152121150A071B07215369013B5361BA
:106070005DF8044B7047137C03F003030029E6D05E
:1060800043F00403E3E753695DF8044B023B5361BB
:10609000704753695DF8044B02335361704753698D
:1060A0005DF8044B01335361704700BFC0260020E8
:1060B00008B50E4808F018F90D4803F045FF0C48E4
:1060C00003F066FF08B9002008BD0A4803F03CFF52
:1060D000084803F05DFF0028F5D0074803F034FFBF
:1060E0000548BDE8084003F053BF00BF4C13002033
:1060F000E4270020042900203829002000000000A7
:1061000010B5254A044682B0002022600DF1060336
:106110006060A06001AAE0600DF102011F4803F079
:1061200051FFBDF90230204604EE103ABDF90430AB
:1061300005EE103ABDF90630B8EEC44B07EE103A42
:10614000B8EEC55BB8EEC76B9FED0F7B9FED103BC4
:1061500025EE075B24EE074B26EE077B24EE034B70
:1061600025EE036B27EE037BB7EEC44BB7EEC66B91
:10617000B7EEC77B84ED014A84ED026A84ED037AB1
:1061800002B010BDAFF30080000000000000103F1F
:1061900000000060B89E2340BC030020E4270020DC
:1061A00010B5254A044682B0002022600DF1060396
:1061B0006060A06001AAE0600DF102011F4803F0D9
:1061C0005DFFBDF90230204606EE103ABDF90430FD
:1061D00007EE103ABDF90630B8EEC66B02EE103A83
:1061E000B8EEC77B9FED103BB8EEC22B86EE035B8B
:1061F00087EE036B82EE037B9FED0D4B25EE045B78
:1062000026EE046BB7EEC55B27EE047B84ED015AE6
:10621000B7EEC66BB7EEC77B84ED026A84ED037AF6
:1062200002B010BDAFF300800000000000606040CD
:10623000000000A046DF913FBC030020042900209D
:1062400010B5254A044682B0002022600DF10603F5
:106250006060A06001AAE0600DF102011F4803F038
:10626000D5FEBDF90230204604EE103ABDF90430E7
:1062700005EE103ABDF90630B8EEC44B07EE103A01
:10628000B8EEC55BB8EEC76B9FED0F7B9FED103B83
:1062900025EE075B24EE074B26EE077B24EE034B2F
:1062A00025EE036B27EE037BB7EEC44BB7EEC66B50
:1062B000B7EEC77B84ED014A84ED026A84ED037A70
:1062C00002B010BDAFF30080000000403333E33F65
:1062D000000000A0F7C6B03EBC0300203829002013
:1062E00010B50B46362800F28F82DFE810F08402EA
:1062F0007B0272026902600257024E0245023C02B2
:1063000033022A02210218020F020602FD01A40133
:106310009B0192018901800177016E0165015C0199
:1063200053014A01410138012F0126011D011301CA
:106330000901FF00F500EB00E100D700CD00C3002C
:10634000B900AF00A5009B00910087007D0073009D
:1063500069005F0055004B0041003700BA4C042231
:10636000BA493620C4F8D83005F098F9012010BD9C
:10637000B54C0422B6493520C4F8D43005F08EF966
:10638000012010BDB04C0422B2493420C4F8D030F2
:1063900005F084F9012010BDAB4C0422AE49332036
:1063A000C4F8CC3005F07AF9012010BDA64C0422C7
:1063B000AA493220C4F8C83005F070F9012010BD98
:1063C000A14C0422A6493120C4F8C43005F066F976
:1063D000012010BD9C4C0422A2493020C4F8C030DA
:1063E00005F05CF9012010BD974C04229E492F2036
:1063F000C4F8BC3005F052F9012010BD924C0422C3
:106400009A492E20C4F8B83005F048F9012010BD93
:106410008D4C042296492D20C4F8B43005F03EF985
:10642000012010BD884C042292492C20C4F8B030C1
:1064300005F034F9012010BD834C04228E492B2035
:10644000C4F8AC3005F02AF9012010BD7E4C0422BE
:106450008A492A20C4F8A83005F020F9012010BD8F
:10646000794C042286492920C4F8A43005F016F995
:10647000012010BD744C042282492820C4F8A030A9
:1064800005F00CF9012010BD6F4C04227E49272035
:10649000C4F89C3005F002F9012010BD6A4C0422BA
:1064A0007A492620C4F8983005F0F8F8012010BD8C
:1064B000654C042276492520C4F8943005F0EEF8A6
:1064C000012010BD604C042272492420C4F8903091
:1064D00005F0E4F8012010BD5B4C04226E49232036
:1064E000C4F88C3005F0DAF8012010BD564C0422B7
:1064F0006A492220C4F8883005F0D0F8012010BD88
:10650000514C042266492120C4F8843005F0C6F8B5
:10651000012010BD4C4C042262492020C4F8803078
:1065200005F0BCF8012010BD474C04225E491F2035
:10653000E36705F0B3F8012010BD434C04225B492A
:106540001E20A36705F0AAF8012010BD3E4C0422CE
:1065500057491D20636705F0A1F8012010BD3A4C92
:10656000042254491C20236705F098F8012010BD2F
:10657000354C042250491B20E36605F08FF80120BA
:1065800010BD314C04224D491A20A36605F086F84F
:10659000012010BD2C4C042249491920636605F0E6
:1065A0007DF8012010BD284C04224649182023669E
:1065B00005F074F8012010BD234C04224249172035
:1065C000E36505F06BF8012010BD1F4C04223F4924
:1065D0001620A36505F062F8012010BD1A4C0422B4
:1065E0003B491520636505F059F8012010BD164C94
:1065F000042238491420236505F050F8012010BD0D
:10660000114C042234491320E36405F047F80120BB
:1066100010BD0D4C042231491220A36405F03EF850
:10662000012010BD084C04222D491120636405F09F
:1066300035F8012010BD044C04222A49102023649F
:1066400005F02CF8012010BDC0260020792C000098
:10665000ED2B0000612B0000D52A0000492A000024
:10666000BD29000031290000A5280000B53D00002B
:10667000293D00009D3C0000113C0000853B0000CE
:10668000F93A00006D3A0000E13900005539000088
:10669000C93800003D380000B13700002537000040
:1066A000993600000D36000085350000FD340000ED
:1066B00075340000ED33000065330000DD3200006A
:1066C00055320000CD31000045310000BD300000E2
:1066D00035300000AD2F0000252F00009D2E00005A
:1066E000152E00008D2D0000484C042248490F2033
:1066F000E36304F0D3FF012010BD444C042245495C
:106700000E20A36304F0CAFF012010BD3F4C0422F9
:1067100041490D20636304F0C1FF012010BD3B4CD3
:1067200004223E490C20236304F0B8FF012010BD71
:10673000364C04223A490B20E36204F0AFFF0120FB
:1067400010BD324C042237490A20A36204F0A6FF90
:10675000012010BD2D4C042233490920636204F04E
:106760009DFF012010BD294C0422304908202362DE
:1067700004F094FF012010BD244C04222C49072072
:10678000E36104F08BFF012010BD204C0422294955
:106790000620A36104F082FF012010BD1B4C0422DF
:1067A00025490520636104F079FF012010BD042212
:1067B000164C22491046236104F070FF012010BDE1
:1067C000124C04221E490320E36004F067FF0120FD
:1067D00010BD0E4C04221B490220A36004F05EFF92
:1067E000012010BD094C042217490120636004F008
:1067F00055FF012010BD054C0422144900202360E0
:1068000004F04CFF012010BD002010BDC026002068
:10681000052D00001D280000952700000D27000011
:1068200085260000FD25000075250000ED240000F0
:1068300065240000DD23000055230000CD22000068
:1068400045220000BD21000035210000AD200000E0
:106850002DE9F0479DF820E004460E4615461F46F8
:10686000BEF1000F01D016460D460221304604F05D
:10687000D3FE022128464FF0000A04F0CDFE284A3C
:10688000300128494FEA051CDFF89C9002EB000E0E
:1068900052F8008002EB0C032760DEF80CE008469B
:1068A000C4F814E0DF684FF4FA63C4F80C8052F8BF
:1068B0000CC0C4F820A0A761DFF870A00968D9F85F
:1068C0000020C4F810C0AAFB0292920C03FB02F253
:1068D00003685B1A9A42FBD8D8F80030DCF8002035
:1068E0001EEA030F14BF01230023174202D043F016
:1068F0000203DBB204F10C07237730463946FFF779
:10690000EFFC394684F824002846FFF7E9FC94F8A8
:1069100024300344204684F82430BDE8F08700BFCB
:1069200034050020041000E01812002083DE1B4311
:106930002DE9F04FAC4B8BB00A22AC49AC4840F289
:10694000EE2803F023F8AB4CAB4B0A22A749AB4827
:1069500003F01CF8AA4B0A22A449AA4803F016F82F
:1069600022680121A24803F03DF822680121A348D2
:1069700003F038F822680121A24803F033F802211D
:10698000A14803F0E5FE2D219F4803F0E7FE032117
:106990009E4803F0DDFEA0219C4803F0DFFE0421A9
:1069A0009B4803F0D5FE0A21994803F0D7FE182131
:1069B000984803F0CDFE8C21964803F0CFFE1921B4
:1069C000954803F0C5FE0F21934803F0C7FE934E90
:1069D0001C21934803F0BCFEAA21914803F0BEFE9F
:1069E000904C3568904FDFF8749204E0B3F5FA6F7D
:1069F00015D806F071FB06F06FFB237843B13B78A6
:106A0000DB0705D53368D9F800209B1A0E2B06D872
:106A1000336822785B1B002AE8D14345E9D9834CCF
:106A200000214FF461420B46C4F8E414A26004F262
:106A30007C42C4F8E814C4F8F014C4F8EC1402E082
:106A40000133192B0AD052F8041F0029F8D103F59D
:106A50009071774A643344F821205360754A0023CB
:106A600002E00133192B0AD052F8041F0029F8D193
:106A700003F59071704A643344F8212053606D4AE5
:106A8000002302E00133192B0AD052F8041F002919
:106A9000F8D103F59071694A643344F821205360BA
:106AA000674A002302E00133192B0BD052F8041F70
:106AB0000029F8D1634A04EB83017D33C1F81C241B
:106AC0009360D4605E4A002302E00133192B0BD09F
:106AD00052F8041F0029F8D15B4A04EB83017D338F
:106AE000C1F81C249360D460554A002302E00133AE
:106AF000192B0BD052F8041F0029F8D1534A04EB8C
:106B000083017D33C1F81C249360D4604C4A002378
:106B100002E00133192B0BD052F8041F0029F8D1E1
:106B20004B4A04EB83017D33C1F81C249360D4608D
:106B300000211F2004F070FD1F2004F067FDB0FA53
:106B400080F3444A00215B092020384D137004F083
:106B500063FD2020DFF808A104F058FD94F8F894B4
:106B6000B0FA80F03C4BCB4640091870BBF1000FE7
:106B700040F01181D4F8E434D6F800902BB1D5F868
:106B80000435994588BFC5F8E4B4A26927492AB1FC
:106B90003368C9EB03039A42C0F0E681606803687A
:106BA0005B69534540F0998006F0EAF90028C0F28D
:106BB0009880D4F8F434D4F8E42403441B4F072A13
:106BC000C4F8F43400F02E81002A4BD1FF2800F0E5
:106BD0003C81336841F28831C9EB03038B42D4D93D
:106BE00087F8F824C6E700BF2C12002040420F00AF
:106BF0002C280020101C00208C120020602800206F
:106C0000EC12002094280020482900205029002060
:106C1000582900206029002068290020AC3000207D
:106C200070290020CD300020CC300020382A0020F0
:106C300048300020B42E00206C2F0020F4270020C4
